:100000000C9485000C94AD000C94AD000C94AD00E4
:100010000C94AD000C94AD000C94AD000C94AD00AC
:100020000C94AD000C94AD000C94AD000C94AD009C
:100030000C94AD000C94AD000C94AD000C94AD008C
:100040000C9419050C94AD000C9489050C9463056F
:100050000C94AD000C94AD000C94AD000C94AD006C
:100060000C94BB050C94AD0008000000BE9224491E
:10007000123EABAAAA2ABECDCCCC4C3E00000080DA
:10008000BEABAAAAAA3E00000000BF000000803F4D
:100090000000000000084178D3BB4387D1133D190D
:1000A0000E3CC3BD4282AD2B3E68EC8276BED98F3A
:1000B000E1A93E4C80EFFFBE01C4FF7F3F0000007E
:1000C000000000000000250028002B0004040404A8
:1000D00004040404020202020202030303030303F2
:1000E00001020408102040800102040810200102CF
:1000F00004081020000000080002010000030407AB
:100100000000000000000000E90611241FBECFEF30
:10011000D8E0DEBFCDBF11E0A0E0B1E0ECE1F9E155
:1001200002C005900D92AA38B107D9F723E0AAE8DA
:10013000B1E001C01D92A030B207E1F710E0C5E8C0
:10014000D0E004C02197FE010E94810CC438D10781
:10015000C9F70E942A070C948C0C0C940000309173
:100160004C02313208F04BC0809128028111FCCF43
:1001700090914B0222E02093280221E02093270255
:100180002FEF209326021092250230932402EBE2F7
:10019000F2E0A4E0B2E020E0321721F041914D936B
:1001A0002F5FFACF1092030220910302990F922B36
:1001B0009093030290910202913061F41092020236
:1001C000909103029093BB009091BC0093FDF8CFF7
:1001D00095EC01C095EE9093BC009091280292306E
:1001E000E1F3909126029F3F79F0809126028032C0
:1001F00041F080912602803331F084E005C081E037
:1002000003C082E001C083E010922A0210924C02E7
:1002100010922902089590E0FC01EC50FF4F2491C8
:10022000FC01E052FF4F3491FC01E453FF4FE49195
:10023000EE23B1F1222339F1233091F038F421304B
:10024000A9F0223001F584B58F7D12C0273091F0DE
:100250002830A1F02430B9F4809180008F7D03C054
:10026000809180008F77809380000DC084B58F7758
:1002700084BD09C08091B0008F7703C08091B00029
:100280008F7D8093B000F0E0EE0FFF1FEE53FF4F25
:10029000A591B4918FB7F894EC91E32BEC938FBFB9
:1002A00008958E3008F08E508770806480937C00B3
:1002B00080917A00806480937A0080917A0086FD34
:1002C000FCCF809178002091790090E0922B0895E6
:1002D00008950895DC01ED91FC910190F081E02DED
:1002E0000994CF92DF92EF92FF920F931F93CF93D7
:1002F000DF936C017A018B01C0E0D0E0CE15DF0501
:1003000081F0D8016D918D01D601ED91FC910190A4
:10031000F081E02DC6010995892B11F02196EECFD1
:100320007E01C701DF91CF911F910F91FF90EF9058
:10033000DF90CF900895FC01538D448D252F30E040
:10034000842F90E0821B930B541710F0CF960895E2
:1003500001970895FC01918D828D981761F0828D2F
:10036000DF01A80FB11D5D968C91928D9F5F9F73E9
:10037000928F90E008958FEF9FEF0895FC01918D8B
:10038000828D981731F0828DE80FF11D858D90E0F8
:1003900008958FEF9FEF0895FC01918D228D892F95
:1003A00090E0805C9F4F821B91098F73992708957D
:1003B0008DE492E00E94CC0121E0892B09F420E039
:1003C000822F0895FC01848DDF01A80FB11DA35A6F
:1003D000BF4F2C91848D90E001968F739927848F65
:1003E000A689B7892C93A089B1898C918370806488
:1003F0008C93938D848D981306C00288F389E02D29
:1004000080818F7D80830895EF92FF920F931F93D9
:10041000CF93DF93EC0181E0888F9B8D8C8D9813B7
:1004200005C0E889F989808185FD26C0F62E0B8DEF
:1004300010E00F5F1F4F0F731127E02E8C8DE81215
:100440000CC00FB607FCFACFE889F989808185FFD7
:10045000F5CFCE010E94E201F1CF8B8DFE01E80FB6
:10046000F11DE35AFF4FF0829FB7F8940B8FEA8992
:10047000FB89808180620AC09FB7F894EE89FF896A
:100480006083E889F98980818370806480839FBF5D
:1004900081E090E0DF91CF911F910F91FF90EF905D
:1004A0000895CF93DF93EC01888D8823C9F0EA8902
:1004B000FB89808185FD05C0A889B9898C9186FD5D
:1004C0000FC00FB607FCF5CF808185FFF2CFA8895A
:1004D000B9898C9185FFEDCFCE010E94E201E7CF73
:1004E000DF91CF91089580E090E0892B29F00E9460
:1004F000D80181110C940000089585ED8093BC0013
:100500008091BC0084FDFCCF109228020895409198
:10051000CA01262F30E0240F311D21323105DCF4D1
:10052000209128022430C9F4FC0180E090E0861775
:1005300058F43091CA012191DC01A655BE4FA30F9A
:10054000B11D2C930196F3CF8091CA01680F60937F
:10055000CA0180E0089581E0089582E00895089539
:10056000E091F2018091F101E81730F4F0E0E657F4
:10057000FE4F808190E008958FEF9FEF0895909156
:10058000F2018091F101981750F4E92FF0E0E6575D
:10059000FE4F208130E09F5F9093F20102C02FEF69
:1005A0003FEFC90108958091F10190E02091F2019F
:1005B000821B91090895CF92DF92EF92FF920F93E1
:1005C0001F93CF93DF937C01CB018A0120912902F5
:1005D000222389F0EB016B01C40ED51ECC15DD057D
:1005E00069F06991D701ED91FC910190F081E02DC6
:1005F000C7010995F3CF642F0E948702C801DF91DC
:10060000CF911F910F91FF90EF90DF90CF900895C1
:10061000CF93DF931F92CDB7DEB769832091290274
:100620002223D1F020914C02203240F021E030E032
:10063000FC013383228380E090E015C080912A0280
:10064000E82FF0E0E55DFD4F998190838F5F809307
:100650002A0280934C0205C061E0CE0101960E94FF
:10066000870281E090E00F90DF91CF910895CF93C2
:10067000C62F91E09093290292E690934B0210923C
:100680002A0210924C02682F8AEE92E00E94080320
:100690006C2F8AEE92E00E940803CF910C94AF0079
:1006A000CF93DF93D62FC42F682F84E00E943703A7
:1006B0006D2F83E00E9437036C2F82E0DF91CF9192
:1006C0000C943703CF93DF93EC0181E080932902F0
:1006D0008EE380934B0210922A0210924C026881A2
:1006E0008AEE92E00E94080369818AEE92E00E94FD
:1006F0000803DF91CF910C94AF00CF93DF9300D02C
:10070000CDB7DEB790E899838A83CE0101960E9427
:1007100062030F900F90DF91CF910895CF93DF93F5
:1007200000D0CDB7DEB780E489836A83CE0101961D
:100730000E94620381E090E00F900F90DF91CF91D3
:100740000895089580E090E008950E94870C611557
:10075000710579F0FB0101900020E9F73197AF01B5
:10076000461B570BDC01ED91FC910280F381E02DDB
:10077000099480E090E008958F929F92AF92BF928B
:10078000EF92FF920F931F93CF93DF93CDB7DEB716
:10079000A1970FB6F894DEBF0FBECDBF7C01FA0162
:1007A000CB0119A2223008F42AE08E010F5D1F4F01
:1007B000822E912CA12CB12CBF01A50194010E9485
:1007C0008809F901CA01015011096A3014F4605D09
:1007D00001C0695CD8016C93232B242B252B61F776
:1007E000B801C7010E94A703A1960FB6F894DEBF17
:1007F0000FBECDBFDF91CF911F910F91FF90EF9072
:10080000BF90AF909F908F900895CF92DF92EF921C
:10081000FF92CF93DF936C01990FEE08FF08F7FE6C
:1008200015C06DE28DE492E00E946A01EC0144275C
:100830005527BA014C195D096E097F092AE08DE43C
:1008400092E00E94BC03C80FD91F08C02AE0B7017C
:10085000A6018DE492E00E94BC03EC0166E371E026
:100860008DE492E00E94A7038C0F9D1FDF91CF9132
:10087000FF90EF90DF90CF9008957F928F929F929C
:10088000AF92BF92CF92DF92EF92FF920F931F939E
:10089000CF93DF938C016A017B01722E9A01AB0129
:1008A000C701B6010E94400C882319F069E371E08A
:1008B00027C046015701E894B7F82FEF3FEF4FE705
:1008C0005FE7C501B4010E94400C81110DC02FEFFC
:1008D0003FEF4FE75FE7C501B4010E94260A1816F3
:1008E0001CF46DE371E00CC02FEF3FEF4FE75FE4C6
:1008F000C701B6010E947E0B181694F461E471E002
:10090000C801DF91CF911F910F91FF90EF90DF9081
:10091000CF90BF90AF909F908F907F900C94A70343
:100920002FEF3FEF4FE75FECC701B6010E94260AA9
:1009300087FDE4CF20E030E0A901C701B6010E94A5
:10094000260A87FF0AC06DE2C8010E946A01EC0115
:10095000F7FAF094F7F8F09402C0C0E0D0E0B12CC0
:1009600060E070E080E09FE37B1441F020E030E045
:1009700040E251E40E942B0AB394F6CFA7019601FE
:100980000E94BA096B017C010E949D0A4B015C0127
:100990002AE0AB01BC01C8010E94BC03C80FD91FEB
:1009A0007720C1F1C501B4010E94CC0A9B01AC01C2
:1009B000C701B6010E94B9096B017C016EE2C80152
:1009C0000E946A01C80FD91F20E030E040E251E4E4
:1009D000C701B6010E94D30B4B015C010E949D0A26
:1009E0006B01E12CF12C2AE0B701A601C8010E949D
:1009F000BC03C80FD91FC701B6010E94CC0A9B01D6
:100A0000AC01C501B4010E94B9096B017C017A9463
:100A10007110DACFCE01DF91CF911F910F91FF902E
:100A2000EF90DF90CF90BF90AF909F908F907F908E
:100A300008951F920F920FB60F9211242F933F9398
:100A40008F939F93AF93BF938091FE019091FF018D
:100A5000A0910002B09101023091FD0123E0230F2B
:100A60002D3720F40196A11DB11D05C026E8230FE6
:100A70000296A11DB11D2093FD018093FE0190936C
:100A8000FF01A0930002B09301028091F9019091BF
:100A9000FA01A091FB01B091FC010196A11DB11DCD
:100AA0008093F9019093FA01A093FB01B093FC01AC
:100AB000BF91AF919F918F913F912F910F900FBE5A
:100AC0000F901F9018951F920F920FB60F9211243E
:100AD0002F933F934F935F936F937F938F939F9346
:100AE000AF93BF93EF93FF938DE492E00E94E201F6
:100AF000FF91EF91BF91AF919F918F917F916F91F6
:100B00005F914F913F912F910F900FBE0F901F90CB
:100B100018951F920F920FB60F9211242F938F9357
:100B20009F93EF93FF93E0915D02F0915E028081CD
:100B3000E0916302F091640282FD12C09081809185
:100B400066028F5F8F7320916702821751F0E091E8
:100B50006602F0E0E35BFD4F958F8093660201C073
:100B60008081FF91EF919F918F912F910F900FBEF8
:100B70000F901F9018951F920F920FB60F9211248D
:100B80002F933F934F935F936F937F938F939F9395
:100B9000AF93BF93EF93FF938091B900887F803626
:100BA00009F49CC068F5883209F45BC090F4803188
:100BB00009F454C038F4882309F4F6C0883009F4E5
:100BC0004DC0F6C0883109F44CC0803209F45DC0D4
:100BD000EFC0803409F468C048F4803309F455C08C
:100BE000883309F0E5C080932602D8C0803509F427
:100BF0004FC0883509F45DC0883409F0D9C0D6C02B
:100C0000883909F4C7C0A8F4883709F467C038F4F4
:100C1000883609F463C0803709F460C0C9C08838D9
:100C200009F4B8C0803909F45FC0803809F0C0C049
:100C30005BC0803B09F486C038F4803A09F466C092
:100C4000883A09F47FC0B4C0803C09F4A7C0883C4E
:100C500009F4A4C0883B09F48AC0AAC080910302A9
:100C600010C09091250280912402981770F5E091B0
:100C7000250281E08E0F80932502F0E0EC5FFD4FAE
:100C800080818093BB0085EC86C0809326028EC055
:100C9000E091250281E08E0F809325028091BB00B8
:100CA000F0E0EC5FFD4F808390912502809124025B
:100CB0006EC0E091250281E08E0F80932502809125
:100CC000BB00F0E0EC5FFD4F808380912702811133
:100CD0006DC081E08093020284EA61C083E080936A
:100CE00028021092EC01CFCF8091EC01803208F005
:100CF00051C0E091EC0181E08E0F8093EC01809176
:100D0000BB00F0E0E453FE4F8083BDCF85EC8093C1
:100D1000BC00109228028091EC01803230F4E09106
:100D2000EC01F0E0E453FE4F10826091EC0170E0C2
:100D3000E091ED01F091EE018CEC91E009951092BB
:100D4000EC0136C084E0809328021092CB0110920F
:100D5000CA01E091EF01F091F00109958091CA017B
:100D6000811105C081E08093CA011092AA01E0912F
:100D7000CB0181E08E0F8093CB01F0E0E655FE4F72
:100D800080818093BB009091CB018091CA0198171C
:100D900008F479CF85E88093BC000AC085EC809385
:100DA000BC001092280204C0109226020E947D020C
:100DB000FF91EF91BF91AF919F918F917F916F9133
:100DC0005F914F913F912F910F900FBE0F901F9009
:100DD0001895EDE4F2E01382128288EE93E0A0E031
:100DE000B0E084839583A683B7832AE031E0318322
:100DF000208325EC30E03587248724EC30E03787EA
:100E0000268720EC30E0318B208B21EC30E0338BD7
:100E1000228B22EC30E0358B248B26EC30E0378BB4
:100E2000268B118E128E138E148EEAEEF2E0138250
:100E3000128284839583A683B7838CE191E09183AA
:100E40008083E6EFF2E0138212828EE291E09183DA
:100E500080830895CF93DF9300D0CDB7DEB7789429
:100E600084B5826084BD84B5816084BD85B58260AF
:100E700085BD85B5816085BD80916E008160809360
:100E80006E001092810080918100826080938100C9
:100E900080918100816080938100809180008160D9
:100EA000809380008091B10084608093B100809134
:100EB000B00081608093B00080917A00846080935C
:100EC0007A0080917A00826080937A0080917A0023
:100ED000816080937A0080917A00806880937A00A4
:100EE0001092C1001092F2011092F10110922A02A8
:100EF00010924C021092280281E0809327021092F7
:100F0000020282E10E940B0183E10E940B018091A9
:100F1000B9008E7F8093B9008091B9008D7F809356
:100F2000B90088E48093B80085E48093BC0088E62B
:100F300091E09093F0018093EF0189E691E0909326
:100F4000EE018093ED018091FA02982F98609093C2
:100F5000FA0212E01093FE021092FF02EBE3FDE0B2
:100F60003197F1F788620E947D038BE496E4019744
:100F7000F1F78091FA0280620E947D0383E592E09E
:100F80000197F1F78091FA0280620E947D038091BF
:100F9000FA0280620E947D0384E08093FB028CE071
:100FA0000E947D0381E00E947D038BE39FE1019716
:100FB000F1F71093FC0286E00E947D0360E080E080
:100FC0000E9437036FEF88E00E94370360E281E000
:100FD0000E9437034FEF6FEF8FEF0E94500365E4DD
:100FE00071E086EF92E00E94A703E0915D02F0912C
:100FF0005E021083E0915902F0915A021082E09152
:101000005B02F0915C028FEC808310926502E091AC
:101010006102F091620286E08083E0915F02F091CC
:101020006002808180618083E0915F02F0916002C4
:10103000808188608083E0915F02F091600280810E
:1010400080688083E0915F02F091600280818F7DF3
:10105000808340910001609102018FEF0E94500354
:1010600022242A9433E0332E412C512C40E8742E54
:1010700050EC652E0FEF10E08FE00E94510124E14B
:1010800030E0DC010E947A0CA20191010E94690902
:1010900069017A0184E1C80ED11CE11CF11CD092D7
:1010A0000501C0920401798228EC2A83CE010196C1
:1010B0000E946203F7FE0EC06DE286EF92E00E948E
:1010C0006A0144275527BA014C195D096E097F0949
:1010D0002AE003C02AE0B701A60186EF92E00E9451
:1010E000BC039FB7F894C090F901D090FA01E0904A
:1010F000FB01F090FC0186B5A89B07C08F3F29F04B
:101100002FEFC21AD20AE20AF20A9FBFFE2CED2C80
:10111000DC2CCC24C80ED11CE11CF11C22E0CC0C30
:10112000DD1CEE1CFF1C2A95D1F78091F5019091F2
:10113000F601A091F701B091F801805C9D4BA04FA2
:10114000BF4F8C159D05AE05BF0508F0BFC080E1FF
:101150000E945101BC01990F880B990B0E94CE0A85
:101160009B01AC0160E070EC8FE794E40E942B0AD5
:1011700020E030E040E85FE30E94B90920E030EC75
:1011800042EF56EC0E94D30B20E030EC42EF56ECDD
:101190000E942B0A0E948B0B20E030EC4FE855E4B4
:1011A0000E942B0A2FE03FEC4BE55BE30E94BA095B
:1011B0009B01AC0160E070E080E89FE30E942B0A95
:1011C00023E333E948E853E40E94B9094B015C0189
:1011D00063E571E08DE492E00E94A7034091F30182
:1011E0005091F40160E070E02AE08DE492E00E940A
:1011F000BC036AE571E08DE492E00E94A70322E05F
:10120000B501A4018DE492E00E943D0479826A82D6
:10121000CE0101960E94620322E0B501A40186EF8F
:1012200092E00E943D046BE671E08DE492E00E9442
:10123000A7036091040170910501072E000C880B33
:10124000990B0E94CE0A9B01AC01C501B4010E941A
:101250007E0B18165CF4109203011092020110929A
:1012600001011092000182E390E00AC01093030193
:1012700000930201109301010093000180E090E0CF
:101280000E94050440910001609102018FEF0E94CD
:10129000500381E0C81688E2D8068BE6E8068EEE99
:1012A000F80618F0C12CD12C7601C092F501D0922D
:1012B000F601E092F701F092F8018091F30190912C
:1012C000F40101969093F4018093F3010E9473025C
:1012D000D3CE052E97FB1EF400940E94800957FD83
:1012E00007D00E94880907FC03D04EF40C948009B3
:1012F00050954095309521953F4F4F4F5F4F089542
:1013000090958095709561957F4F8F4F9F4F089571
:10131000A1E21A2EAA1BBB1BFD010DC0AA1FBB1FF9
:10132000EE1FFF1FA217B307E407F50720F0A21B6B
:10133000B30BE40BF50B661F771F881F991F1A94D8
:1013400069F760957095809590959B01AC01BD0102
:10135000CF010895A29FB001B39FC001A39F700D5C
:10136000811D1124911DB29F700D811D1124911DAD
:1013700008955058BB27AA270E94D1090C94440B0A
:101380000E94360B38F00E943D0B20F039F49F3F4D
:1013900019F426F40C94330B0EF4E095E7FB0C944F
:1013A0002D0BE92F0E94550B58F3BA1762077307EC
:1013B0008407950720F079F4A6F50C94770B0EF4CA
:1013C000E0950B2EBA2FA02D0B01B90190010C0155
:1013D000CA01A0011124FF27591B99F0593F50F46D
:1013E000503E68F11A16F040A22F232F342F4427C5
:1013F000585FF3CF469537952795A795F0405395BD
:10140000C9F77EF41F16BA0B620B730B840BBAF08C
:101410009150A1F0FF0FBB1F661F771F881FC2F7F7
:101420000EC0BA0F621F731F841F48F4879577950B
:101430006795B795F7959E3F08F0B0CF9395880FC5
:1014400008F09927EE0F9795879508950E94090B4C
:1014500008F481E008950E943F0A0C94440B0E9416
:101460003D0B58F00E94360B40F029F45F3F29F005
:101470000C942D0B51110C94780B0C94330B0E948F
:10148000550B68F39923B1F3552391F3951B550B35
:10149000BB27AA2762177307840738F09F5F5F4F47
:1014A000220F331F441FAA1FA9F335D00E2E3AF086
:1014B000E0E832D091505040E695001CCAF72BD09E
:1014C000FE2F29D0660F771F881FBB1F26173707EF
:1014D0004807AB07B0E809F0BB0B802DBF01FF2721
:1014E00093585F4F3AF09E3F510578F00C942D0BC6
:1014F0000C94780B5F3FE4F3983ED4F38695779590
:101500006795B795F7959F5FC9F7880F911D9695D9
:10151000879597F90895E1E0660F771F881FBB1F35
:10152000621773078407BA0720F0621B730B840BE2
:10153000BA0BEE1F88F7E09508950E945D0B88F0C6
:101540009F5798F0B92F9927B751B0F0E1F0660F87
:10155000771F881F991F1AF0BA95C9F714C0B130C8
:1015600091F00E94770BB1E008950C94770B672FF0
:10157000782F8827B85F39F0B93FCCF386957795F7
:101580006795B395D9F73EF49095809570956195E0
:101590007F4F8F4F9F4F0895E89409C097FB3EF40B
:1015A00090958095709561957F4F8F4F9F4F9923B0
:1015B000A9F0F92F96E9BB279395F695879577952E
:1015C0006795B795F111F8CFFAF4BB0F11F460FFEE
:1015D0001BC06F5F7F4F8F4F9F4F16C0882311F046
:1015E00096E911C0772321F09EE8872F762F05C05A
:1015F000662371F096E8862F70E060E02AF09A95F5
:10160000660F771F881FDAF7880F9695879597F9E9
:101610000895990F0008550FAA0BE0E8FEEF161683
:101620001706E807F907C0F012161306E407F507D6
:1016300098F0621B730B840B950B39F40A2661F04A
:10164000232B242B252B21F408950A2609F4A140ED
:10165000A6958FEF811D811D089597F99F6780E8FA
:1016600070E060E008959FEF80EC089500240A94F4
:101670001616170618060906089500240A9412166D
:101680001306140605060895092E0394000C11F4A0
:10169000882352F0BB0F40F4BF2B11F460FF04C04D
:1016A0006F5F7F4F8F4F9F4F089557FD9058440FA6
:1016B000551F59F05F3F71F04795880F97FB991FB1
:1016C00061F09F3F79F0879508951216130614066E
:1016D000551FF2CF4695F1DF08C0161617061806FB
:1016E000991FF1CF86957105610508940895E894D6
:1016F000BB2766277727CB0197F908950E94090B2E
:1017000008F48FEF089516F00C94450C0C94330BED
:1017100068940C942D0B0E945D0BA8F39923C1F3E0
:10172000AEF3DF93CF931F930F93FF92C92FDD2763
:1017300088232AF02197660F771F881FDAF720E0A9
:1017400030E040E85FEB9FE3883920F0803E38F0DE
:1017500021968F770E94BA09E8E6F0E004C00E9463
:10176000BA09E5E9F0E00E94530C8B01BE01EC01DF
:10177000FB2E6F5771097595771F880B990B0E9487
:10178000CE0A28E132E741E35FE30E94E60BAF2D8A
:101790009801AE01FF900F911F91CF91DF910E94B0
:1017A000D1090C94440B0E94E60B0C94440B0E944C
:1017B000360B38F00E943D0B20F0952311F00C946D
:1017C0002D0B0C94330B11240C94780B0E94550BA9
:1017D00070F3959FC1F3950F50E0551F629FF00184
:1017E000729FBB27F00DB11D639FAA27F00DB11D9D
:1017F000AA1F649F6627B00DA11D661F829F222726
:10180000B00DA11D621F739FB00DA11D621F839FAC
:10181000A00D611D221F749F3327A00D611D231F82
:10182000849F600D211D822F762F6A2F11249F57D0
:1018300050409AF0F1F088234AF0EE0FFF1FBB1FD3
:10184000661F771F881F91505040A9F79E3F510592
:1018500080F00C942D0B0C94780B5F3FE4F3983ED2
:10186000D4F3869577956795B795F795E7959F5F3C
:10187000C1F7FE2B880F911D9695879597F90895CE
:101880000E94090B880B990B08959F3F31F09150EE
:1018900020F4879577956795B795880F911D969554
:1018A000879597F90895DF93CF931F930F93FF9236
:1018B000EF92DF927B018C01689406C0DA2EEF0173
:1018C0000E94E60BFE01E894A59125913591459182
:1018D0005591A6F3EF010E94D109FE019701A801DD
:1018E000DA9469F7DF90EF90FF900F911F91CF91FD
:1018F000DF9108950E94AA09B7FF0895821B930BF8
:101900000895EE0FFF1F0590F491E02D099481E0FA
:0C19100090E0F8940C948C0CF894FFCF3D
:10191C00FF00FF001E0000000000040271019B018B
:10192C005102CC01AA01BE01000000000803DB0239
:10193C00A203AF02D302BF02B002000000008E036C
:10194C007101A203A1030D0A006E616E00696E663F
:10195C00006F76660054656D703A202020546D61DE
:10196C00783A0054696D653A2000732C2054656DEB
:10197C0070657261747572653A20002061626F76D1
:10198C0065207468726573686F6C6420283530202C
:0A199C00696620796573293A20007E
:00000001FF
